{
  "contractName": "SwapAndDistributeTestBNB",
  "abi": [
    {
      "anonymous": false,
      "inputs": [
        {
          "indexed": false,
          "internalType": "uint256",
          "name": "seller",
          "type": "uint256"
        },
        {
          "indexed": false,
          "internalType": "uint256",
          "name": "affiliate",
          "type": "uint256"
        },
        {
          "indexed": false,
          "internalType": "uint256",
          "name": "broker",
          "type": "uint256"
        },
        {
          "indexed": false,
          "internalType": "uint256",
          "name": "seniorBroker",
          "type": "uint256"
        },
        {
          "indexed": false,
          "internalType": "uint256",
          "name": "leader",
          "type": "uint256"
        },
        {
          "indexed": false,
          "internalType": "uint256",
          "name": "owner",
          "type": "uint256"
        }
      ],
      "name": "Distributed",
      "type": "event"
    },
    {
      "stateMutability": "payable",
      "type": "fallback"
    },
    {
      "inputs": [],
      "name": "AFFILIATE_SHARE",
      "outputs": [
        {
          "internalType": "uint256",
          "name": "",
          "type": "uint256"
        }
      ],
      "stateMutability": "view",
      "type": "function"
    },
    {
      "inputs": [],
      "name": "BROKERLEADER_SHARE_WITH_AFF",
      "outputs": [
        {
          "internalType": "uint256",
          "name": "",
          "type": "uint256"
        }
      ],
      "stateMutability": "view",
      "type": "function"
    },
    {
      "inputs": [],
      "name": "BROKERLEADER_SHARE_WO_AFF",
      "outputs": [
        {
          "internalType": "uint256",
          "name": "",
          "type": "uint256"
        }
      ],
      "stateMutability": "view",
      "type": "function"
    },
    {
      "inputs": [],
      "name": "FEES",
      "outputs": [
        {
          "internalType": "uint256",
          "name": "",
          "type": "uint256"
        }
      ],
      "stateMutability": "view",
      "type": "function"
    },
    {
      "inputs": [
        {
          "internalType": "address",
          "name": "seller",
          "type": "address"
        },
        {
          "internalType": "address",
          "name": "affiliate",
          "type": "address"
        },
        {
          "internalType": "address",
          "name": "broker",
          "type": "address"
        },
        {
          "internalType": "address",
          "name": "seniorBroker",
          "type": "address"
        },
        {
          "internalType": "address",
          "name": "leader",
          "type": "address"
        },
        {
          "internalType": "address",
          "name": "tokenOut",
          "type": "address"
        },
        {
          "internalType": "uint256",
          "name": "minAmountOut",
          "type": "uint256"
        },
        {
          "internalType": "uint24",
          "name": "poolFee",
          "type": "uint24"
        },
        {
          "internalType": "uint24",
          "name": "serviceFee",
          "type": "uint24"
        },
        {
          "internalType": "uint256",
          "name": "feeFree",
          "type": "uint256"
        }
      ],
      "name": "deposit",
      "outputs": [],
      "stateMutability": "payable",
      "type": "function"
    },
    {
      "inputs": [
        {
          "internalType": "address",
          "name": "seller",
          "type": "address"
        },
        {
          "internalType": "address",
          "name": "affiliate",
          "type": "address"
        },
        {
          "internalType": "address",
          "name": "broker",
          "type": "address"
        },
        {
          "internalType": "address",
          "name": "seniorBroker",
          "type": "address"
        },
        {
          "internalType": "address",
          "name": "leader",
          "type": "address"
        },
        {
          "internalType": "address",
          "name": "tokenIn",
          "type": "address"
        },
        {
          "internalType": "address",
          "name": "tokenOut",
          "type": "address"
        },
        {
          "internalType": "uint256",
          "name": "amountIn",
          "type": "uint256"
        },
        {
          "internalType": "uint256",
          "name": "minAmountOut",
          "type": "uint256"
        },
        {
          "internalType": "uint24",
          "name": "poolFee",
          "type": "uint24"
        },
        {
          "internalType": "uint24",
          "name": "serviceFee",
          "type": "uint24"
        },
        {
          "internalType": "uint256",
          "name": "feeFree",
          "type": "uint256"
        }
      ],
      "name": "depositToken",
      "outputs": [],
      "stateMutability": "nonpayable",
      "type": "function"
    },
    {
      "inputs": [],
      "name": "owner",
      "outputs": [
        {
          "internalType": "address payable",
          "name": "",
          "type": "address"
        }
      ],
      "stateMutability": "view",
      "type": "function"
    },
    {
      "inputs": [
        {
          "internalType": "address",
          "name": "tokenAddress",
          "type": "address"
        }
      ],
      "name": "withdraw",
      "outputs": [],
      "stateMutability": "nonpayable",
      "type": "function"
    },
    {
      "inputs": [],
      "name": "withdrawNative",
      "outputs": [],
      "stateMutability": "nonpayable",
      "type": "function"
    },
    {
      "stateMutability": "payable",
      "type": "receive"
    }
  ],
  "bytecode": "0x608060405234801561001057600080fd5b50600080546001600160a01b0319163317905561126d806100326000396000f3fe6080604052600436106100915760003560e01c806356a179b5116100635780638da5cb5b1161004b5780638da5cb5b146101345780639af4743a1461016c578063f995c9c11461018c57005b806356a179b51461010a5780638b7b23ee1461011f57005b8063131fade31461009a5780632994d492146100c257806350431ce4146100d557806351cff8d9146100ea57005b3661009857005b005b3480156100a657600080fd5b506100af609681565b6040519081526020015b60405180910390f35b6100986100d0366004610f2f565b6101a1565b3480156100e157600080fd5b506100986102b6565b3480156100f657600080fd5b50610098610105366004610fdb565b610328565b34801561011657600080fd5b506100af60af81565b34801561012b57600080fd5b506100af601e81565b34801561014057600080fd5b50600054610154906001600160a01b031681565b6040516001600160a01b0390911681526020016100b9565b34801561017857600080fd5b50610098610187366004610ff6565b61043d565b34801561019857600080fd5b506100af601981565b600034116101f65760405162461bcd60e51b815260206004820152601960248201527f596f75206e65656420746f2073656e6420736f6d6520424e420000000000000060448201526064015b60405180910390fd5b6101ff3461054f565b73ae13d989dac2f0debff460ac112a837c89baa7cd600061022382883489896105ba565b90506102a86040518061012001604052808e6001600160a01b031681526020018d6001600160a01b031681526020018c6001600160a01b031681526020018b6001600160a01b031681526020018a6001600160a01b03168152602001896001600160a01b031681526020018381526020018662ffffff168152602001858152506106c2565b505050505050505050505050565b6000546001600160a01b031633146103105760405162461bcd60e51b815260206004820152601760248201527f4f6e6c79206f776e65722063616e20776974686472617700000000000000000060448201526064016101ed565b600054610326906001600160a01b03164761099a565b565b6000546001600160a01b031633146103825760405162461bcd60e51b815260206004820152601760248201527f4f6e6c79206f776e65722063616e20776974686472617700000000000000000060448201526064016101ed565b6040517f70a082310000000000000000000000000000000000000000000000000000000081523060048201526000906001600160a01b038316906370a0823190602401602060405180830381865afa1580156103e2573d6000803e3d6000fd5b505050506040513d601f19601f8201168201806040525081019061040691906110bd565b6000549091506104219083906001600160a01b031683610a5c565b6000546104399083906001600160a01b031683610b16565b5050565b6000851161048d5760405162461bcd60e51b815260206004820152601c60248201527f596f75206e65656420746f2073656e6420736f6d6520746f6b656e730000000060448201526064016101ed565b61049987333088610c4a565b846001600160a01b03888116908816146104bd576104ba88888888886105ba565b90505b6105406040518061012001604052808f6001600160a01b031681526020018e6001600160a01b031681526020018d6001600160a01b031681526020018c6001600160a01b031681526020018b6001600160a01b03168152602001896001600160a01b031681526020018381526020018562ffffff168152602001848152506106c2565b50505050505050505050505050565b73ae13d989dac2f0debff460ac112a837c89baa7cd6001600160a01b031663d0e30db0826040518263ffffffff1660e01b81526004016000604051808303818588803b15801561059e57600080fd5b505af11580156105b2573d6000803e3d6000fd5b505050505050565b60006105db86731b81d678ffb9c0263b24a97847620c99d213eb1486610a5c565b60408051610100810182526001600160a01b0388811682528716602082015262ffffff84168183015230606082015242608082015260a0810186905260c08101859052600060e082015290517f414bf389000000000000000000000000000000000000000000000000000000008152731b81d678ffb9c0263b24a97847620c99d213eb149063414bf389906106749084906004016110d6565b6020604051808303816000875af1158015610693573d6000803e3d6000fd5b505050506040513d601f19601f820116820180604052508101906106b791906110bd565b979650505050505050565b60006106dc8260c001518360e00151846101000151610d7f565b90506000818360c001516106f0919061116a565b905060008060008060006001600160a01b031687602001516001600160a01b03161461072f5761072c610724609688611181565b6103e8610dc7565b93505b60408701516001600160a01b0316156107745760208701516000906001600160a01b031661075e5760af610761565b60195b90506107706107248289611181565b9350505b60608701516001600160a01b0316156107b95760208701516000906001600160a01b03166107a35760af6107a6565b60195b90506107b56107248289611181565b9250505b60808701516001600160a01b0316156107fe5760208701516000906001600160a01b03166107e85760af6107eb565b60195b90506107fa6107248289611181565b9150505b6000818461080c85886111a0565b61081691906111a0565b61082091906111a0565b61082a908861116a565b905061083f8860a00151896000015188610a5c565b6108528860a00151896000015188610b16565b60a088015160005461086e91906001600160a01b031683610a5c565b60a088015160005461088a91906001600160a01b031683610b16565b84156108b6576108a38860a00151896020015187610a5c565b6108b68860a00151896020015187610b16565b83156108e2576108cf8860a00151896040015186610a5c565b6108e28860a00151896040015186610b16565b821561090e576108fb8860a00151896060015185610a5c565b61090e8860a00151896060015185610b16565b811561093a576109278860a00151896080015184610a5c565b61093a8860a00151896080015184610b16565b6040805187815260208101879052908101859052606081018490526080810183905260a081018290527f714c4637727cfacc0b64d95afc3afd00db9bd5d3a0d09deee92978db71402cfb9060c00160405180910390a15050505050505050565b604080516000808252602082019092526001600160a01b0384169083906040516109c491906111b8565b60006040518083038185875af1925050503d8060008114610a01576040519150601f19603f3d011682016040523d82523d6000602084013e610a06565b606091505b5050905080610a575760405162461bcd60e51b815260206004820152600360248201527f535445000000000000000000000000000000000000000000000000000000000060448201526064016101ed565b505050565b6040517fdd62ed3e0000000000000000000000000000000000000000000000000000000081523060048201526001600160a01b0383811660248301526000919085169063dd62ed3e90604401602060405180830381865afa158015610ac5573d6000803e3d6000fd5b505050506040513d601f19601f82011682018060405250810190610ae991906110bd565b905081811015610b10578015610b0557610b0584846000610dd3565b610b10848484610dd3565b50505050565b604080516001600160a01b038481166024830152604480830185905283518084039091018152606490920183526020820180516001600160e01b03167fa9059cbb000000000000000000000000000000000000000000000000000000001790529151600092839290871691610b8b91906111b8565b6000604051808303816000865af19150503d8060008114610bc8576040519150601f19603f3d011682016040523d82523d6000602084013e610bcd565b606091505b5091509150818015610bf7575080511580610bf7575080806020019051810190610bf791906111f3565b610c435760405162461bcd60e51b815260206004820152600260248201527f535400000000000000000000000000000000000000000000000000000000000060448201526064016101ed565b5050505050565b604080516001600160a01b0385811660248301528481166044830152606480830185905283518084039091018152608490920183526020820180516001600160e01b03167f23b872dd000000000000000000000000000000000000000000000000000000001790529151600092839290881691610cc791906111b8565b6000604051808303816000865af19150503d8060008114610d04576040519150601f19603f3d011682016040523d82523d6000602084013e610d09565b606091505b5091509150818015610d33575080511580610d33575080806020019051810190610d3391906111f3565b6105b25760405162461bcd60e51b815260206004820152600360248201527f535446000000000000000000000000000000000000000000000000000000000060448201526064016101ed565b6000818411610d9057506000610dc0565b6000610d9c838661116a565b90506000610dbb610db262ffffff871684611181565b620f4240610dc7565b925050505b9392505050565b6000610dc08284611215565b604080516001600160a01b038481166024830152604480830185905283518084039091018152606490920183526020820180516001600160e01b03167f095ea7b3000000000000000000000000000000000000000000000000000000001790529151600092839290871691610e4891906111b8565b6000604051808303816000865af19150503d8060008114610e85576040519150601f19603f3d011682016040523d82523d6000602084013e610e8a565b606091505b5091509150818015610eb4575080511580610eb4575080806020019051810190610eb491906111f3565b610c435760405162461bcd60e51b815260206004820152600260248201527f534100000000000000000000000000000000000000000000000000000000000060448201526064016101ed565b80356001600160a01b0381168114610f1757600080fd5b919050565b803562ffffff81168114610f1757600080fd5b6000806000806000806000806000806101408b8d031215610f4f57600080fd5b610f588b610f00565b9950610f6660208c01610f00565b9850610f7460408c01610f00565b9750610f8260608c01610f00565b9650610f9060808c01610f00565b9550610f9e60a08c01610f00565b945060c08b01359350610fb360e08c01610f1c565b9250610fc26101008c01610f1c565b91506101208b013590509295989b9194979a5092959850565b600060208284031215610fed57600080fd5b610dc082610f00565b6000806000806000806000806000806000806101808d8f03121561101957600080fd5b6110228d610f00565b9b5061103060208e01610f00565b9a5061103e60408e01610f00565b995061104c60608e01610f00565b985061105a60808e01610f00565b975061106860a08e01610f00565b965061107660c08e01610f00565b955060e08d013594506101008d013593506110946101208e01610f1c565b92506110a36101408e01610f1c565b91506101608d013590509295989b509295989b509295989b565b6000602082840312156110cf57600080fd5b5051919050565b6000610100820190506001600160a01b0380845116835280602085015116602084015262ffffff6040850151166040840152806060850151166060840152506080830151608083015260a083015160a083015260c083015160c083015260e083015161114d60e08401826001600160a01b03169052565b5092915050565b634e487b7160e01b600052601160045260246000fd5b60008282101561117c5761117c611154565b500390565b600081600019048311821515161561119b5761119b611154565b500290565b600082198211156111b3576111b3611154565b500190565b6000825160005b818110156111d957602081860181015185830152016111bf565b818111156111e8576000828501525b509190910192915050565b60006020828403121561120557600080fd5b81518015158114610dc057600080fd5b60008261123257634e487b7160e01b600052601260045260246000fd5b50049056fea26469706673582212206de9b608b646e6df344f5c07d48897323c8a2b49f04b9ffe1a835ce23d0253a764736f6c634300080d0033",
  "immutableReferences": {},
  "source": "// SPDX-License-Identifier: MIT\r\npragma solidity >=0.8.13;\r\npragma abicoder v2;\r\n\r\nimport \"./SwapAndDistribute.sol\";\r\nimport \"./IWNative.sol\";\r\n\r\naddress constant WBNB = 0xae13d989daC2f0dEbFf460aC112a837C89BAa7cd; // Wraped BNB on Binance Smart Chain testnet\r\n\r\nIWNative constant wbnb = IWNative(WBNB);\r\n\r\nISwapRouter constant swapRouterBNB = ISwapRouter(\r\n    0x1b81D678ffb9C0263b24A97847620C99d213eB14 // official PancakeSwap v3 router on testnet\r\n);\r\n\r\ncontract SwapAndDistributeTestBNB is SwapAndDistribute {\r\n    function getNativeAddress() internal pure override returns (address) {\r\n        return WBNB;\r\n    }\r\n\r\n    function convertWrapped(uint256 amount) internal override {\r\n        wbnb.deposit{ value: amount }();\r\n    }\r\n\r\n    function getRouter() internal pure override returns (ISwapRouter) {\r\n        return swapRouterBNB;\r\n    }\r\n}\r\n",
  "sourcePath": "C:\\Users\\jannik\\Coding\\Repository\\nefentus_contracts\\contracts\\SwapAndDistributeTestBNB.sol",
  "compiler": {
    "name": "solc",
    "version": "0.8.13+commit.abaa5c0e.Emscripten.clang"
  },
  "schemaVersion": "3.4.14",
  "updatedAt": "2024-01-09T15:18:44.784Z",
  "devdoc": {
    "kind": "dev",
    "methods": {
      "deposit(address,address,address,address,address,address,uint256,uint24,uint24,uint256)": {
        "params": {
          "affiliate": "Affiliate address",
          "broker": "Broker address",
          "feeFree": "Fee free amount in stablecoin (tokenOut) units",
          "leader": "Leader address",
          "minAmountOut": "Minimal amount of tokens that should be received from the swap",
          "poolFee": "Pool fee in 1000000 parts (1/1000000)",
          "seller": "Seller address",
          "serviceFee": "Service fee in 1000000 parts (1/1000000)",
          "tokenOut": "Token address that BNB should be converted to"
        }
      },
      "depositToken(address,address,address,address,address,address,address,uint256,uint256,uint24,uint24,uint256)": {
        "params": {
          "affiliate": "Affiliate address",
          "amountIn": "Amount of tokens to deposit",
          "broker": "Broker address",
          "feeFree": "Fee free amount in stablecoin (tokenOut) units",
          "leader": "Leader address",
          "minAmountOut": "Minimal amount of tokens that should be received from the swap",
          "poolFee": "Pool fee in 1000000 parts (1/1000000)",
          "seller": "Seller address",
          "serviceFee": "Service fee in 1000000 parts (1/1000000)",
          "tokenIn": "Token address that should be swapped",
          "tokenOut": "Token address that is converted to"
        }
      },
      "withdraw(address)": {
        "params": {
          "tokenAddress": "Token address"
        }
      }
    },
    "version": 1
  },
  "userdoc": {
    "kind": "user",
    "methods": {
      "deposit(address,address,address,address,address,address,uint256,uint24,uint24,uint256)": {
        "notice": "Swaps BNB for token and distributes the received tokens between seller, affiliate, broker, leader, and owner."
      },
      "depositToken(address,address,address,address,address,address,address,uint256,uint256,uint24,uint24,uint256)": {
        "notice": "Deposits tokens and distributes the received tokens between seller, affiliate, broker, leader, and owner."
      },
      "withdraw(address)": {
        "notice": "Withdraws token from the contract."
      },
      "withdrawNative()": {
        "notice": "Withdraws native currency from the contract."
      }
    },
    "version": 1
  }
}